:100000000C9434000C9446000C9446000C9446006A
:100010000C9446000C9446000C9446000C94460048
:100020000C9446000C9446000C9446000C94460038
:100030000C9446000C9446000C9448000C94460026
:100040000C9446000C9446000C9446000C94460018
:100050000C9446000C9446000C9446000C94460008
:100060000C9446000C94460011241FBECFEFD8E03C
:10007000DEBFCDBF21E0A0E0B1E001C01D92A43001
:10008000B207E1F70E9480000C94A1000C940000DC
:1000900018958091030191E0980F909303018231AC
:1000A00038F0809102011092030180628093020176
:1000B0008091010191E0980F90930101883238F00E
:1000C000809102011092010180648093020180916D
:1000D000000191E0980F90930001883138F08091F1
:1000E0000201109200018068809302018091020158
:1000F000882329F09BB189278BB9109202010895BA
:1001000014B88FEF85B917B89FE798B91AB88BB9AB
:100110008AB1806E8AB985E085BD82E687BD82E0BE
:1001200084BD80916E00826080936E0083B7817F72
:1001300083BF789483B7816083BF88950E9449000C
:06014000FCCFF894FFCF94
:00000001FF
