:100000000C9434000C943E000C943E000C943E0082
:100010000C943E000C943E000C943E000C943E0068
:100020000C943E000C943E000C943E000C943E0058
:100030000C943E000C943E000C943E000C943E0048
:100040000C943E000C9440000C943E000C943E0036
:100050000C943E000C943E000C943E000C943E0028
:100060000C943E000C943E0011241FBECFEFD8E04C
:10007000DEBFCDBF0E9445000C945A000C940000D6
:100080008F938EB58BB98F9118951BB88FEF8AB966
:1000900093E39BB914B885B917B88FE788B980EC9A
:1000A0008CBD83B7817F83BF789483B7816083BF22
:0800B0008895FECFF894FFCF04
:00000001FF
