:100000000C9434000C943E000C943E000C943E0082
:100010000C943E000C943E000C943E000C943E0068
:100020000C943E000C943E000C943E000C943E0058
:100030000C943E000C943E000C943E000C943E0048
:100040000C943E000C943E000C9440000C943E0036
:100050000C943E000C943E000C943E000C943E0028
:100060000C943E000C943E0011241FBECFEFD8E04C
:10007000DEBFCDBF0E9447000C9473000C940000BB
:100080008F938091C6008BB98EBD8F91189514B84F
:100090008FEF85B917B89FE798B91BB88AB983E382
:1000A0008BB985B1877D85B988E284B980E58CBD3F
:1000B0001092C50089E18093C4008091C0008D7FBB
:1000C0008093C00088E18093C1008091C100806866
:1000D0008093C10083B7817F83BF789483B78160A9
:0A00E00083BF8895FECFF894FFCF90
:00000001FF
